:020000000828CE
:0200080031289D
:10001000831603178601890180308100031783123C
:1000200089018316031396019D018701FF30850026
:1000300000309F0097018312031387018601950109
:10004000831603138C14FF3092008312031326309F
:1000500092008C01C0308B00831203132F28000004
:100060002F28A0000308A1008C1C44282208013A74
:10007000A20022183D2887014028533087004028DD
:100080003D30A500492044282108830020088C1019
:080090000900A50B4928080036
:04400E00F120FF3F5F
:00000001FF
