:020000000828CE
:1000100083160317890188010F3086008030810024
:100020000317831289018316031396019D0187012B
:10003000FF30850000309F00970183120313870172
:100040008501A2019501831603138C10FF309200E5
:1000500083120313FF3092008C0100308B00831257
:10006000031332280313831205183B2885183F28F1
:10007000051941283228533087004420322887014F
:100080003228503087003228831203131030860044
:10009000443006187F28233086187F283030061910
:1000A0007F282A3086197F282030860043300618A2
:1000B0007F28393086187F28383006197F28373056
:1000C00086197F2840308600423006187F28363057
:1000D00086187F28353006197F28343086197F2806
:1000E00080308600413006187F28333086187F28FC
:1000F000323006197F28313086197F28442887003E
:020100003228A3
:04400E00F120FF3F5F
:00000001FF
