:020000000828CE
:0200080031289D
:10001000831603178601890180308100031783123C
:1000200089018316031396019D018701FF30850026
:1000300000309F0097018312031387018601950109
:10004000831603138C14FF30920083120313FF30C6
:1000500092008C01C0308B00831203132F28000004
:100060002F28A0000308A1008C1C4328A50B4328BF
:100070001030A5002208013AA20022184128870169
:100080004328533087002108830020088C10090082
:04400E00F120FF3F5F
:00000001FF
